:100000000C9463000C94BB040C9494040C94E204D0
:100010000C94E2040C94E2040C948B000C948B007E
:100020000C948B000C948B000C948B000C948B0024
:100030000C948B000C948B000C948B000C948B0014
:100040000C944A040C948B000C9418040C94F20346
:100050000C948B000C948B000C948B000C948B00F4
:100060000C948B000C948B000000000024002700EF
:100070002A0000000008000201000003040700003D
:1000800000000000000000000000250028002B00F8
:1000900000000000230026002900040404040404D6
:1000A0000404020202020202030303030303010227
:1000B00004081020408001020408102001020408F6
:1000C00010205C05660811241FBECFEFD8E0DEBF0C
:1000D000CDBF11E0A0E0B1E0E2E7F1E102C00590A0
:1000E0000D92A633B107D9F722E0A6E3B1E001C033
:1000F0001D92A236B207E1F710E0C2E6D0E004C0DC
:100100002197FE010E94A108C136D107C9F70E94BC
:10011000E8060C94AC080C940000CF92DF92EF92AA
:10012000FF920F931F93CF93DF936C017A018B01A2
:10013000C0E0D0E0CE15DF0589F0D8016D918D01CA
:10014000D601ED91FC910190F081E02DC601099559
:10015000892B11F47E0102C02196ECCFC701DF91FB
:10016000CF911F910F91FF90EF90DF90CF90089566
:10017000FC01918D828D981761F0828DDF01A80FAF
:10018000B11D5D968C91928D9F5F9F73928F90E0D1
:1001900008958FEF9FEF0895FC01918D828D981740
:1001A00031F0828DE80FF11D858D90E008958FEF7D
:1001B0009FEF0895FC01918D228D892F90E0805C46
:1001C0009F4F821B91098F73992708958EE891E0C4
:1001D0000E94DA0021E0892B09F420E0822F0895A3
:1001E000FC01848DDF01A80FB11DA35ABF4F2C91D4
:1001F000848D90E001968F739927848FA689B789A3
:100200002C93A089B1898C9180648C93938D848D7B
:10021000981306C00288F389E02D80818F7D80834A
:100220000895EF92FF920F931F93CF93DF93EC010A
:1002300081E0888F9B8D8C8D981305C0E889F989A2
:10024000808185FD24C0F62E0B8D10E00F5F1F4FBF
:100250000F731127E02E8C8DE8120CC00FB607FC2F
:10026000FACFE889F989808185FFF5CFCE010E9418
:10027000F000F1CF8B8DFE01E80FF11DE35AFF4F27
:10028000F0820B8FEA89FB898081806207C0EE894A
:10029000FF896083E889F98980818064808381E0B7
:1002A00090E0DF91CF911F910F91FF90EF90089513
:1002B000CF93DF93EC01888D8823C9F0EA89FB890D
:1002C000808185FD05C0A889B9898C9186FD0FC004
:1002D0000FB607FCF5CF808185FFF2CFA889B989D9
:1002E0008C9185FFEDCFCE010E94F000E7CFDF912A
:1002F000CF91089580E090E0892B29F00E94E600DC
:1003000081110C940000089590E0FC01EE58FF4F1D
:100310003491FC01E255FF4F2491FC01E656FF4F5A
:10032000E491EE2309F43BC0332339F1333091F0EB
:1003300038F43130A9F0323001F584B58F7D12C028
:10034000373091F03830A1F03430B9F4809180002A
:100350008F7D03C0809180008F77809380000DC0D7
:1003600084B58F7784BD09C08091B0008F7703C0BA
:100370008091B0008F7D8093B000F0E0EE0FFF1F02
:10038000EA57FF4FA591B4918FB7F894EC916111A2
:1003900003C020952E2301C02E2B2C938FBF0895D0
:1003A000CF93DF9390E0FC01E255FF4F2491FC01D5
:1003B000E656FF4F8491882361F190E0880F991FE2
:1003C000FC01E859FF4FC591D491FC01EA57FF4F5A
:1003D000A591B491611109C09FB7F89488812095C7
:1003E00082238883EC912E230BC0623061F49FB787
:1003F000F8943881822F809583238883EC912E2B6B
:100400002C939FBF06C08FB7F894E8812E2B2883CA
:100410008FBFDF91CF9108953FB7F8948091860107
:1004200090918701A0918801B091890126B5A89B80
:1004300005C02F3F19F00196A11DB11D3FBFBA2F76
:10044000A92F982F8827820F911DA11DB11DBC01D6
:10045000CD0142E0660F771F881F991F4A95D1F79B
:1004600008950895CF93DF93EC0160E08E810E94A0
:10047000840161E08E810E94840160E08E810E948F
:1004800084018BE891E00197F1F7DF91CF91089516
:10049000CF92DF92EF92FF920F931F93CF93DF9350
:1004A0007C016C0187E0C80ED11CC0E0D0E0062FB3
:1004B00010E0B8010C2E02C0759567950A94E2F71A
:1004C0006170F60181916F010E9484012196C43010
:1004D000D10579F7C701DF91CF911F910F91FF905F
:1004E000EF90DF90CF900C943202CF92DF92EF9298
:1004F000FF920F931F93CF93DF93EC01F62E642F9F
:100500008C810E9484018D818F3F19F060E00E94F0
:1005100084018F850F2D10E084FF25C06E0187E0D8
:10052000C80ED11CE12CF12CB8010E2C02C075951F
:1005300067950A94E2F76170F60181916F010E945C
:100540008401FFEFEF1AFF0A88E0E816F10461F773
:10055000CE01DF91CF911F910F91FF90EF90DF902F
:10056000CF900C943202B80184E0759567958A9516
:10057000E1F7CE010E9448026F2DCE01DF91CF91AD
:100580001F910F91FF90EF90DF90CF900C94480255
:1005900041E00E94750281E090E0089520918C0175
:1005A00030918D012817390771F490918A0180915B
:1005B0008B01981741F0E0918A01F0E0EF5BFE4F6C
:1005C000808190E008958FEF9FEF089508951F9325
:1005D000CF93DF93DC015C962D913C915D972115C3
:1005E000310539F481E090E013969C938E93129735
:1005F0003DC05196ED91FC91529750969C91509729
:10060000892F80951FB75E964C915E9741FB7727A7
:1006100070F941FD6095F8944081772311F0492BE2
:1006200001C048234083E9012197F1F748E0508158
:1006300060FF02C0592B01C058235083E901219764
:10064000F1F76695415099F7772321F0908189233E
:10065000808303C08081982B90831FBF5C968D910F
:100660009C915D970197F1F721E030E0C901DF919E
:10067000CF911F91089520918C0130918D01281701
:10068000390771F480918B0120918A0190E0805CA0
:100690009F4F821B910960E470E00E9470080895EA
:1006A00080E090E0089520918C0130918D01281711
:1006B0003907B9F490918A0180918B01981789F0DC
:1006C000E0918A01F0E0EF5BFE4F808120918A018A
:1006D00030E02F5F3F4F2F73332720938A0190E044
:1006E00008958FEF9FEF0895E0918C01F0918D01B7
:1006F000E817F90769F4A389B4899C9185898095E5
:1007000089238C9310928D0110928C0181E00895C1
:1007100080E008952F923F924F925F926F927F9266
:100720008F929F92AF92BF92CF92DF92EF92FF9201
:100730000F931F932FB7F8948091820190918301BA
:10074000A0918401B09185012FBF1C012D019C0156
:10075000A20160E070E080E090E0A0903901B090EC
:100760003A01C0903B01D0903C01E0903D01F090F7
:100770003E0100913F01109140010E948408243FF6
:10078000314041055105610571058105910539F03B
:1007900030F09091380181E08927809338012092D0
:1007A000390130923A0140923B0150923C01109243
:1007B0003D0110923E0110923F01109240011F91A5
:1007C0000F91FF90EF90DF90CF90BF90AF909F90F0
:1007D0008F907F906F905F904F903F902F900895F3
:1007E0000E94A7081F920F920FB60F9211242F9309
:1007F0003F934F935F936F937F938F939F93AF93A9
:10080000BF93EF93FF938EE891E00E94F000FF9179
:10081000EF91BF91AF919F918F917F916F915F9178
:100820004F913F912F910F900FBE0F901F901895F1
:100830001F920F920FB60F9211242F938F939F93B5
:10084000EF93FF93E0919E01F0919F018081E091F1
:10085000A401F091A50182FD12C090818091A701B1
:100860008F5F8F732091A801821751F0E091A7014B
:10087000F0E0E257FE4F958F8093A70101C0808181
:10088000FF91EF919F918F912F910F900FBE0F903D
:100890001F9018951F920F920FB60F9211242F934D
:1008A0003F938F939F93AF93BF93809182019091D9
:1008B0008301A0918401B09185013091810123E0F1
:1008C000230F2D3720F40196A11DB11D05C026E888
:1008D000230F0296A11DB11D2093810180938201F7
:1008E00090938301A0938401B09385018091860148
:1008F00090918701A0918801B09189010196A11D75
:10090000B11D8093860190938701A0938801B093D5
:100910008901BF91AF919F918F913F912F910F903E
:100920000FBE0F901F9018951F920F920FB60F9247
:1009300011242F933F934F935F936F937F938F93E4
:100940009F93AF93BF93EF93FF93E0910201F091D8
:1009500003010995FF91EF91BF91AF919F918F9105
:100960007F916F915F914F913F912F910F900FBEAB
:100970000F901F9018951F920F920FB60F9211248F
:100980002F933F934F935F936F937F938F939F9397
:10099000AF93BF93EF93FF93E0910001F0910101BA
:1009A0000995FF91EF91BF91AF919F918F917F91A9
:1009B0006F915F914F913F912F910F900FBE0F90CC
:1009C0001F9018951F920F920FB60F9211242F931C
:1009D0003F934F935F936F937F938F939F93AF93C7
:1009E000BF93EF93FF93E0918C01F0918D013097CD
:1009F00009F451C0968DA685B785858591FF04C001
:100A00009C91892329F447C09C91892309F043C014
:100A1000A389B4899C918589809589238C93868943
:100A200097890197F1F7608D718DA685B7855585FA
:100A300038E020E0CB010197F1F7822F90E0959507
:100A40008795282F4C91452309F02068315091F764
:100A5000868D81FD209580918B0190E001968F73AA
:100A6000992730918A01381749F0A0918B01B0E0A5
:100A7000AF5BBE4F2C9380938B0103C0868D81604A
:100A8000868F828D938D0197F1F7A389B4899C910C
:100A90008589892B8C93FF91EF91BF91AF919F91A5
:100AA0008F917F916F915F914F913F912F910F9017
:100AB0000FBE0F901F901895CF93DF931092910166
:100AC0001092900188EE93E0A0E0B0E08093920154
:100AD00090939301A0939401B093950189E091E0E4
:100AE00090938F0180938E0185EC90E090939B0111
:100AF00080939A0184EC90E090939D0180939C01F7
:100B000080EC90E090939F0180939E0181EC90E0B7
:100B10009093A1018093A00182EC90E09093A301B7
:100B20008093A20186EC90E09093A5018093A401AC
:100B30001092A7011092A8011092A9011092AA0187
:100B400010924D0210924C0289E291E090934B0278
:100B500080934A0288E080934E028FEF80934F0289
:100B600089E08093500286E08093510287E0809371
:100B700052028CE0809353028DE0809354021092D5
:100B8000550210925602109257021092580210927B
:100B9000590281E080935D0210925E0280E48093AE
:100BA0005F0280E18093600280E58093610261E0F2
:100BB00088E00E94D00180914F028F3F19F061E0E0
:100BC0000E94D00161E0809150020E94D001C0E0FB
:100BD000D0E08091590284FD03C084E090E002C01F
:100BE00088E090E0C817D9074CF4FE01E65BFD4FA2
:100BF00061E087810E94D0012196EBCF8BE39DE0DD
:100C00000197F1F760E080914E020E94840160E05C
:100C1000809150020E94840180914F028F3F19F011
:100C200060E00E9484016091590264FD20C063E08D
:100C30008AE492E00E944802CBE4D6E4CE01019718
:100C4000F1F763E08AE492E00E9448022197F1F70D
:100C500063E08AE492E00E94480283E592E0019713
:100C6000F1F762E08AE492E00E9448021EC06062EE
:100C700040E08AE492E00E9475028BE496E40197DA
:100C8000F1F760915902606240E08AE492E00E94CC
:100C9000750283E592E00197F1F760915902606275
:100CA00040E08AE492E00E9475026091590260621D
:100CB00040E08AE492E00E94750284E080935A0248
:100CC00040E06CE08AE492E00E94750240E061E05E
:100CD0008AE492E00E9475028BE39FE10197F1F7AD
:100CE00082E080935B0240E066E08AE492E00E944A
:100CF000750210922E0210922D0288EE93E0A0E071
:100D0000B0E080932F0290933002A0933102B09311
:100D1000320289E191E090932C0280932B02109291
:100D20004202109241021092440210924302109229
:100D300046021092450210924802109247026091BA
:100D400049026E7F6D7F609349026695617081E014
:100D500068278BE00E94840161E08BE00E94D00153
:100D6000E9EBF0E0E491E0933B02E5EAF0E0E491A6
:100D7000F0E0EE0FFF1FEA57FF4F8591949190939B
:100D80003D0280933C0260E08AE00E94D0018091A5
:100D9000490281FD04C061E08AE00E9484018AE08A
:100DA00080933702E8EBF0E0E491E0933802E4EA64
:100DB000F0E0E491F0E0EE0FFF1FE057FF4F859168
:100DC000949190933A0280933902DF91CF910895E4
:100DD000789484B5826084BD84B5816084BD85B516
:100DE000826085BD85B5816085BD80916E00816022
:100DF00080936E00109281008091810082608093C8
:100E000081008091810081608093810080918000C9
:100E10008160809380008091B10084608093B100F4
:100E20008091B00081608093B00080917A008460EE
:100E300080937A0080917A00826080937A0080911A
:100E40007A00816080937A0080917A008068809334
:100E50007A001092C100E0919E01F0919F0182E022
:100E60008083E0919A01F0919B011082E0919C01B6
:100E7000F0919D018FEC80831092A601E091A20178
:100E8000F091A30186E08083E091A001F091A1019F
:100E9000808180618083E091A001F091A101808137
:100EA00088608083E091A001F091A1018081806839
:100EB0008083E091A001F091A10180818F7D8083EA
:100EC0001092460210924502109244021092430280
:100ED00010924202109241028DE991E090934802F3
:100EE0008093470290913702963108F057C02DEB5E
:100EF00030E030934202209341022BE931E03093FD
:100F00004402209343022CE231E0309346022093C6
:100F1000450220916800983050F031E09E3008F48E
:100F200030E081E001C0880F3A95EAF701C084E023
:100F3000822B80936800983038F09E3040F09631D4
:100F400048F020E030E008C02DE630E005C02BE698
:100F500030E002C02CE630E030933F0220933E02A6
:100F6000983030F481E001C0880F9A95EAF70EC0FE
:100F7000292F30E09E3018F42850310902C02E503D
:100F8000310981E001C0880F2A95EAF78093400279
:100F900080914702909148020197F1F780914502B4
:100FA00090914602892B21F180918C0190918D01C5
:100FB00022E08B329207E1F0009711F00E94740357
:100FC000809149028E7F8093490210928B0110928A
:100FD0008A018BE292E090938D0180938C01E091E5
:100FE0003E02F0913F02908180914002892B8083E4
:100FF00045E050E06DE271E08EE891E00E948D00E6
:1010000042E050E063E371E08EE891E00E948D00E1
:1010100061E085E00E94D00162E082E00E94D001A0
:101020008AE893E090930101809300018091690028
:101030008C7F826080936900E89A8BE292E00E9444
:101040003B03892BC9F08BE292E00E945303682F87
:1010500080930401E0918E01F0918F010190F08165
:10106000E02D8EE891E0099542E050E063E371E005
:101070008EE891E00E948D000E940C024B015C0101
:1010800088EEC82E83E0D82EE12CF12C0E940C02B1
:10109000DC01CB0188199909AA09BB09883E934054
:1010A000A105B10558F081E0C81AD108E108F1089E
:1010B00028EE820E23E0921EA11CB11CC114D104A3
:1010C000E104F10419F70E947A01B7CF89E191E0B8
:1010D00090932C0280932B028BE292E00C94740389
:1010E00097FB072E16F4009407D077FD09D00E94D5
:1010F0008D0807FC05D03EF4909581959F4F08958B
:10110000709561957F4F08952A193B094C095D0937
:101110006E097F09800B910B0895AA1BBB1B51E13F
:1011200007C0AA1FBB1FA617B70710F0A61BB70B57
:10113000881F991F5A95A9F780959095BC01CD01FC
:101140000895EE0FFF1F0590F491E02D099481E0C2
:1011500090E0F8940C94AC0810E0C2E6D0E004C033
:10116000FE010E94A1082196C336D107C9F7F89461
:02117000FFCFAF
:1011720031023102610000000011018D00DA00B875
:1011820000CC00580100000000E7028D003B035331
:1011920003CE02E60200000000C8028D00737461F3
:0611A2007274000D0A004A
:00000001FF
