:100000000C9463000C9445070C941E070C946C0729
:100010000C946C070C946C070C948B000C948B0064
:100020000C948B000C948B000C948B000C948B0024
:100030000C948B000C948B000C948B000C948B0014
:100040000C94D4060C948B000C94A2060C947C06A1
:100050000C948B000C948B000C948B000C948B00F4
:100060000C948B000C948B000000000024002700EF
:100070002A0000000008000201000003040700003D
:1000800000000000000000000000250028002B00F8
:1000900000000000230026002900040404040404D6
:1000A0000404020202020202030303030303010227
:1000B00004081020408001020408102001020408F6
:1000C0001020E607210A11241FBECFEFD8E0DEBFC3
:1000D000CDBF11E0A0E0B1E0ECE2F5E102C0059097
:1000E0000D92AA3AB107D9F722E0AAEAB1E001C01D
:1000F0001D92A33EB207E1F710E0C2E6D0E004C0D3
:100100002197FE010E947E0AC136D107C9F70E94DD
:10011000C9080C94890A0C940000CF92DF92EF92E8
:10012000FF920F931F93CF93DF936C017A018B01A2
:10013000C0E0D0E0CE15DF0589F0D8016D918D01CA
:10014000D601ED91FC910190F081E02DC601099559
:10015000892B11F47E0102C02196ECCFC701DF91FB
:10016000CF911F910F91FF90EF90DF90CF90089566
:10017000FC01918D828D981761F0828DDF01A80FAF
:10018000B11D5D968C91928D9F5F9F73928F90E0D1
:1001900008958FEF9FEF0895FC01918D828D981740
:1001A00031F0828DE80FF11D858D90E008958FEF7D
:1001B0009FEF0895FC01918D228D892F90E0805C46
:1001C0009F4F821B91098F73992708958FE092E0CA
:1001D0000E94DA0021E0892B09F420E0822F0895A3
:1001E000FC01848DDF01A80FB11DA35ABF4F2C91D4
:1001F000848D90E001968F739927848FA689B789A3
:100200002C93A089B1898C9180648C93938D848D7B
:10021000981306C00288F389E02D80818F7D80834A
:100220000895EF92FF920F931F93CF93DF93EC010A
:1002300081E0888F9B8D8C8D981305C0E889F989A2
:10024000808185FD24C0F62E0B8D10E00F5F1F4FBF
:100250000F731127E02E8C8DE8120CC00FB607FC2F
:10026000FACFE889F989808185FFF5CFCE010E9418
:10027000F000F1CF8B8DFE01E80FF11DE35AFF4F27
:10028000F0820B8FEA89FB898081806207C0EE894A
:10029000FF896083E889F98980818064808381E0B7
:1002A00090E0DF91CF911F910F91FF90EF90089513
:1002B000CF93DF93EC01888D8823C9F0EA89FB890D
:1002C000808185FD05C0A889B9898C9186FD0FC004
:1002D0000FB607FCF5CF808185FFF2CFA889B989D9
:1002E0008C9185FFEDCFCE010E94F000E7CFDF912A
:1002F000CF91089580E090E0892B29F00E94E600DC
:1003000081110C940000089590E0FC01EE58FF4F1D
:100310003491FC01E255FF4F2491FC01E656FF4F5A
:10032000E491EE2309F43BC0332339F1333091F0EB
:1003300038F43130A9F0323001F584B58F7D12C028
:10034000373091F03830A1F03430B9F4809180002A
:100350008F7D03C0809180008F77809380000DC0D7
:1003600084B58F7784BD09C08091B0008F7703C0BA
:100370008091B0008F7D8093B000F0E0EE0FFF1F02
:10038000EA57FF4FA591B4918FB7F894EC916111A2
:1003900003C020952E2301C02E2B2C938FBF0895D0
:1003A000CF93DF9390E0FC01E255FF4F2491FC01D5
:1003B000E656FF4F8491882361F190E0880F991FE2
:1003C000FC01E859FF4FC591D491FC01EA57FF4F5A
:1003D000A591B491611109C09FB7F89488812095C7
:1003E00082238883EC912E230BC0623061F49FB787
:1003F000F8943881822F809583238883EC912E2B6B
:100400002C939FBF06C08FB7F894E8812E2B2883CA
:100410008FBFDF91CF9108950895CF93DF93EC01C3
:1004200060E08E810E94840161E08E810E948401DF
:1004300060E08E810E9484018BE891E00197F1F7E2
:10044000DF91CF910895CF92DF92EF92FF920F93B9
:100450001F93CF93DF937C016C0187E0C80ED11C02
:10046000C0E0D0E0062F10E0B8010C2E02C0759558
:1004700067950A94E2F76170F60181916F010E941D
:1004800084012196C430D10579F7C701DF91CF915E
:100490001F910F91FF90EF90DF90CF900C940D0281
:1004A000CF92DF92EF92FF920F931F93CF93DF9340
:1004B000EC01F62E642F8C810E9484018D818F3F88
:1004C00019F060E00E9484018F850F2D10E084FFF9
:1004D00025C06E0187E0C80ED11CE12CF12CB801BB
:1004E0000E2C02C0759567950A94E2F76170F601CB
:1004F00081916F010E948401FFEFEF1AFF0A88E0EB
:10050000E816F10461F7CE01DF91CF911F910F91B1
:10051000FF90EF90DF90CF900C940D02B80184E033
:10052000759567958A95E1F7CE010E9423026F2D9C
:10053000CE01DF91CF911F910F91FF90EF90DF904F
:10054000CF900C94230241E00E94500281E090E0A1
:10055000089540E00C94500261E00E94A9028BE3F0
:100560009FE10197F1F70895EF92FF920F931F9388
:10057000CF93DF93EC01623018F08F8588608F870E
:100580006B8B1C8A80E48D8B80E18E8B80E58F8B5A
:1005900061E08C810E94D0018D818F3F19F061E074
:1005A0000E94D00161E08E810E94D0017E0187E02F
:1005B000E80EF11C00E010E08F8584FD03C084E0AC
:1005C00090E002C088E090E0081719074CF461E061
:1005D000F70181917F010E94D0010F5F1F4FECCF87
:1005E0008BE39DE00197F1F760E08C810E9484012C
:1005F00060E08E810E9484018D818F3F19F060E060
:100600000E9484016F8564FD1DC063E0CE010E94DD
:1006100023020BE416E4C8010197F1F763E0CE0171
:100620000E942302C8010197F1F763E0CE010E9406
:10063000230283E592E00197F1F762E0CE010E9488
:10064000230216C06062CE010E94A9028BE496E4E8
:100650000197F1F76F856062CE010E94A90283E5E0
:1006600092E00197F1F76F856062CE010E94A902C6
:100670006F856062CE010E94A90284E0888B6CE0E5
:10068000CE010E94A902CE010E94AC0282E0898BB9
:1006900066E0CE01DF91CF911F910F91FF90EF9017
:1006A0000C94A902209107023091080228173907FB
:1006B00071F49091050280910602981741F0E09143
:1006C0000502F0E0E454FE4F808190E008958FEF42
:1006D0009FEF089508951F93CF93DF93DC015C96FD
:1006E0002D913C915D972115310539F481E090E021
:1006F00013969C938E9312973DC05196ED91FC9169
:10070000529750969C915097892F80951FB75E966F
:100710004C915E9741FB772770F941FD6095F89405
:100720004081772311F0492B01C048234083E90120
:100730002197F1F748E0508160FF02C0592B01C0BA
:1007400058235083E9012197F1F76695415099F7B5
:10075000772321F090818923808303C08081982BA7
:1007600090831FBF5C968D919C915D970197F1F7E7
:1007700021E030E0C901DF91CF911F9108952091D0
:100780000702309108022817390771F48091060298
:100790002091050290E0805C9F4F821B910960E4EC
:1007A00070E00E942B0A089580E090E00895209167
:1007B00007023091080228173907B9F49091050211
:1007C00080910602981789F0E0910502F0E0E45468
:1007D000FE4F80812091050230E02F5F3F4F2F7345
:1007E00033272093050290E008958FEF9FEF08953F
:1007F000E0910702F0910802E817F90769F4A3896C
:10080000B4899C918589809589238C9310920802E4
:100810001092070281E0089580E008950E94840A02
:100820006115710579F0FB0101900020E9F731971E
:10083000AF01461B570BDC01ED91FC910280F38167
:10084000E02D099480E090E00895CF93DF93BC0100
:100850008FE092E00E941004EC016CE271E08FE006
:1008600092E00E9410048C0F9D1FDF91CF9108959C
:100870008F929F92AF92BF92CF92DF92EF92FF92B0
:100880000F931F93CF93DF93CDB7DEB7A1970FB62A
:10089000F894DEBF0FBECDBF6C01990FEE08FF08C4
:1008A000F7FE33C0E0910F02F09110020190F08149
:1008B000E02D6DE28FE092E009958C01222733272D
:1008C000A9012C193D094E095F0919A2CE01819693
:1008D0007C019AE0892E912CA12CB12CCA01B9017E
:1008E000A50194010E943F0A605DF70162937F01B8
:1008F000211531054105510589F7BF018FE092E0CF
:100900000E941004080F191F20C0A701960119A208
:100910008E010F5D1F4F8AE0C82ED12CE12CF12CE7
:10092000CA01B901A70196010E943F0A605DF80162
:1009300062938F01211531054105510589F7BF01EA
:100940008FE092E00E9410048C016CE271E08FE075
:1009500092E00E941004800F911FA1960FB6F894A8
:10096000DEBF0FBECDBFDF91CF911F910F91FF90E2
:10097000EF90DF90CF90BF90AF909F908F900895B1
:100980000F931F93CF93DF938C01EB018BEC92E0DD
:100990000E94AC02E1E08091DE028111E0E0E1958D
:1009A000F0E0E553FD4F648960688BEC92E00E94B3
:1009B000A902B8018BEC92E00E941004E091DE02E3
:1009C000E23010F4E15001C0E1E0F0E0E553FD4F0A
:1009D000648960688BEC92E00E94A902BE018BECF6
:1009E00092E0DF91CF911F910F910C9410048091B0
:1009F0000D0290910E02892B21F08BEC92E00E9467
:100A0000AC0280910D0290910E02019781F48091C9
:100A10000B0290910C02892B29F46AE371E08FE2BA
:100A200091E025C067E371E082E391E020C080910E
:100A30000D0290910E02029781F480910B02909129
:100A40000C02892B29F460E571E083E491E00FC08A
:100A50006DE471E086E491E00AC080910D0290910E
:100A60000E02039731F467E571E08DE591E00E9495
:100A7000C00480910D0290910E02892B41F460E038
:100A800084E00E9484018BEC92E00C94AC0261E063
:100A900084E00C9484012F923F924F925F926F9268
:100AA0007F928F929F92AF92BF92CF92DF92EF92FE
:100AB000FF920F931F9380910B0290910C020E9462
:100AC000380483E691E00E9425042FB7F8948091C2
:100AD000010290910202A0910302B09104022FBF83
:100AE0001C012D019C01A20160E070E080E090E01B
:100AF000A090B401B090B501C090B601D090B701FC
:100B0000E090B801F090B9010091BA011091BB01D9
:100B10000E94610A2A3F31054105510561057105B1
:100B200081059105B1F0A8F082E791E00E942504CB
:100B300080910B0290910C026091090270910A025F
:100B400001960E942B0A90930C0280930B020E9444
:100B5000F7042092B4013092B5014092B601509250
:100B6000B7011092B8011092B9011092BA01109217
:100B7000BB011F910F91FF90EF90DF90CF90BF903E
:100B8000AF909F908F907F906F905F904F903F902D
:100B90002F9008952F923F924F925F926F927F9283
:100BA0008F929F92AF92BF92CF92DF92EF92FF927D
:100BB0000F931F932FB7F894809101029091020236
:100BC000A0910302B09104022FBF1C012D019C01D2
:100BD000A20160E070E080E090E0A090AC01B090F5
:100BE000AD01C090AE01D090AF01E090B001F090A7
:100BF000B1010091B2011091B3010E94610A2A3F34
:100C0000310541055105610571058105910509F021
:100C100008F451C083E891E00E94250461E971E085
:100C20008FE092E00E94100480910D0290910E02DC
:100C30000E9438046AE971E08FE092E00E9410049B
:100C400080910B0290910C020E94380480910D0259
:100C500090910E02892B19F180910D0290910E0254
:100C6000019771F480910B0290910C02892B19F479
:100C700082E090E016C010920E0210920D0215C094
:100C800080910D0290910E02029719F483E090E09A
:100C900008C080910D0290910E02039731F481E01B
:100CA00090E090930E0280930D0210920C0210922D
:100CB0000B020E94F7042092AC013092AD014092E9
:100CC000AE015092AF011092B0011092B10110929A
:100CD000B2011092B3011F910F91FF90EF90DF903E
:100CE000CF90BF90AF909F908F907F906F905F90CC
:100CF0004F903F902F9008951F920F920FB60F9232
:100D000011242F933F934F935F936F937F938F9310
:100D10009F93AF93BF93EF93FF938FE092E00E9476
:100D2000F000FF91EF91BF91AF919F918F917F91D3
:100D30006F915F914F913F912F910F900FBE0F9048
:100D40001F9018951F920F920FB60F9211242F9398
:100D50008F939F93EF93FF93E0911F02F0912002F6
:100D60008081E0912502F091260282FD12C09081DF
:100D7000809128028F5F8F7320912902821751F092
:100D8000E0912802F0E0E15FFD4F958F809328020B
:100D900001C08081FF91EF919F918F912F910F90D2
:100DA0000FBE0F901F9018951F920F920FB60F92C3
:100DB00011242F933F938F939F93AF93BF93809171
:100DC000010290910202A0910302B09104023091BD
:100DD000000223E0230F2D3720F40196A11DB11D41
:100DE00005C026E8230F0296A11DB11D2093000225
:100DF0008093010290930202A0930302B093040235
:100E00008091FC019091FD01A091FE01B091FF0144
:100E10000196A11DB11D8093FC019093FD01A0934B
:100E2000FE01B093FF01BF91AF919F918F913F91D0
:100E30002F910F900FBE0F901F9018951F920F9239
:100E40000FB60F9211242F933F934F935F936F939D
:100E50007F938F939F93AF93BF93EF93FF93E09113
:100E60000201F09103010995FF91EF91BF91AF91BC
:100E70009F918F917F916F915F914F913F912F91B2
:100E80000F900FBE0F901F9018951F920F920FB6E4
:100E90000F9211242F933F934F935F936F937F9300
:100EA0008F939F93AF93BF93EF93FF93E0910001D4
:100EB000F09101010995FF91EF91BF91AF919F9141
:100EC0008F917F916F915F914F913F912F910F90F3
:100ED0000FBE0F901F9018951F920F920FB60F9292
:100EE00011242F933F934F935F936F937F938F932F
:100EF0009F93AF93BF93EF93FF93E0910702F0911D
:100F00000802309709F451C0968DA685B78585856E
:100F100091FF04C09C91892329F447C09C918923A7
:100F200009F043C0A389B4899C9185898095892360
:100F30008C93868997890197F1F7608D718DA685CD
:100F4000B785558538E020E0CB010197F1F7822F76
:100F500090E095958795282F4C91452309F02068BE
:100F6000315091F7868D81FD20958091060290E0A9
:100F700001968F73992730910502381749F0A09197
:100F80000602B0E0A454BE4F2C938093060203C027
:100F9000868D8160868F828D938D0197F1F7A3896D
:100FA000B4899C918589892B8C93FF91EF91BF9196
:100FB000AF919F918F917F916F915F914F913F91F1
:100FC0002F910F900FBE0F901F901895CF92DF9228
:100FD000EF92FF92109212021092110298EEC92E17
:100FE00093E0D92EE12CF12CC0921302D09214027E
:100FF000E0921502F092160288E091E090931002C0
:1010000080930F0285EC90E090931C0280931B026A
:1010100084EC90E090931E0280931D0280EC90E09F
:101020009093200280931F0281EC90E09093220223
:101030008093210282EC90E090932402809323021B
:1010400086EC90E09093260280932502109228026D
:101050001092290210922A0210922B021092CE02B4
:101060001092CD0288E291E09093CC028093CB0263
:1010700088E08093CF028FEF8093D00289E0809345
:10108000D10286E08093D20287E08093D3028CE085
:101090008093D4028DE08093D5021092D6021092F4
:1010A000D7021092D8021092D9021092DA0261E0AF
:1010B0008BEC92E00E94B4021092AF021092AE024A
:1010C000C092B002D092B102E092B202F092B302AA
:1010D00088E191E09093AD028093AC021092C3023C
:1010E0001092C2021092C5021092C4021092C7025E
:1010F0001092C6021092C9021092C8026091CA02F0
:101100006E7F6D7F6093CA026695617081E068278B
:101110008BE00E94840161E08BE00E94D001E9EB4A
:10112000F0E0E491E093BC02E5EAF0E0E491F0E065
:10113000EE0FFF1FEA57FF4F859194919093BE02E7
:101140008093BD0260E08AE00E94D0018091CA02D3
:1011500081FD04C061E08AE00E9484018AE08093FE
:10116000B802E8EBF0E0E491E093B902E4EAF0E0E1
:10117000E491F0E0EE0FFF1FE057FF4F859194914F
:101180009093BB028093BA02FF90EF90DF90CF90D4
:101190000895789484B5826084BD84B5816084BDEF
:1011A00085B5826085BD85B5816085BD80916E0005
:1011B000816080936E001092810080918100826036
:1011C0008093810080918100816080938100809173
:1011D00080008160809380008091B1008460809362
:1011E000B1008091B00081608093B00080917A005E
:1011F000846080937A0080917A00826080937A0084
:1012000080917A00816080937A0080917A00806872
:1012100080937A001092C100E0911F02F0912002A9
:1012200082E08083E0911B02F0911C021082E09129
:101230001D02F0911E028FEC808310922702E09134
:101240002302F091240286E08083E0912102F09154
:101250002202808180618083E0912102F09122024C
:10126000808188608083E0912102F0912202808158
:1012700080688083E0912102F091220280818F7D3D
:1012800080831092C7021092C6021092C50210927B
:10129000C4021092C3021092C2028DE991E09093B1
:1012A000C9028093C8029091B802963108F057C0E5
:1012B0002DEB30E03093C3022093C2022BE931E0E2
:1012C0003093C5022093C4022CE231E03093C70270
:1012D0002093C60220916800983050F031E09E3093
:1012E00008F430E081E001C0880F3A95EAF701C0C8
:1012F00084E0822B80936800983038F09E3040F074
:10130000963148F020E030E008C02DE630E005C01E
:101310002BE630E002C02CE630E03093C002209390
:10132000BF02983030F481E001C0880F9A95EAF747
:101330000EC0292F30E09E3018F42850310902C029
:101340002E50310981E001C0880F2A95EAF7809379
:10135000C1028091C8029091C9020197F1F7809172
:10136000C6029091C702892B21F1809107029091CA
:10137000080222E08C3A9207E1F0009711F00E94F7
:10138000F8038091CA028E7F8093CA0210920602EF
:10139000109205028CEA92E0909308028093070273
:1013A000E091BF02F091C00290818091C102892B2F
:1013B000808362E08BEC92E00E94B40261E085E001
:1013C0000E94D00162E083E00E94D00162E082E0EE
:1013D0000E94D00161E084E00E94D0018AEC95E097
:1013E000909303018093020180916900837F88605C
:1013F00080936900E99A8BE495E0909301018093D2
:101400000001809169008C7F826080936900E89A76
:1014100084EA91E00E94250481E090E090930E021E
:1014200080930D0210920C0210920B0282E090E069
:1014300090930A02809309020E94F7040E947A01A5
:10144000FDCF88E191E09093AD028093AC028CEAED
:1014500092E00C94F80397FB072E16F4009407D043
:1014600077FD09D00E946A0A07FC05D03EF49095EA
:1014700081959F4F0895709561957F4F0895A1E2E2
:101480001A2EAA1BBB1BFD010DC0AA1FBB1FEE1FFE
:10149000FF1FA217B307E407F50720F0A21BB30B49
:1014A000E40BF50B661F771F881F991F1A9469F7C5
:1014B00060957095809590959B01AC01BD01CF0121
:1014C00008952A193B094C095D096E097F09800BB3
:1014D000910B0895AA1BBB1B51E107C0AA1FBB1F9C
:1014E000A617B70710F0A61BB70B881F991F5A95B0
:1014F000A9F780959095BC01CD010895EE0FFF1FCF
:101500000590F491E02D099481E090E0F8940C941A
:10151000890A10E0C2E6D0E004C0FE010E947E0A03
:0C1520002196C336D107C9F7F894FFCF1D
:10152C000C020C020000000011018D00DA00B80062
:10153C00CC005801000000006B038D00BF03D703E3
:10154C0052036A0300000000A3028D000D0A002D57
:10155C003E20506C6179002D3E205475726E206FC8
:10156C006666002D3E20536F6E672031002D3E20A5
:10157C00536F6E6720320054696D65720054697444
:10158C006C6500626C756520696E7465727275703D
:10159C007400626C756520696E7465727275707416
:1015AC0020320072656420696E7465727275707495
:1015BC00007374617465203D20006F7074696F6EE8
:0A15CC00203D20005374617274008A
:00000001FF
