:100000000C9464000C9459040C9432040C94630511
:100010000C9463050C9463050C948C000C940C01F7
:100020000C948C000C948C000C948C000C948C0020
:100030000C948C000C948C000C948C000C948C0010
:100040000C94E8030C948C000C94DD010C94B70123
:100050000C948C000C948C000C948C000C948C00F0
:100060000C948C000C948C000200000000240027EB
:10007000002A00000000080002010000030407003D
:100080000000000000000000000000250028002BF8
:1000900000000000002300260029000404040404DA
:1000A0000404040202020202020303030303030125
:1000B00002040810204080010204081020010204FC
:1000C000081020009A0E730E11241FBECFEFD8E047
:1000D000DEBFCDBF12E0A0E0B1E0E6EBF3E202C08C
:1000E00005900D92A839B107D9F726E0A8E9B2E04A
:1000F00001C01D92A830B207E1F710E0C3E6D0E0DE
:1001000004C02197FE010E947810C236D107C9F7BA
:100110000E94FD070C94CE110C940000CF92DF9248
:10012000EF92FF920F931F93CF93DF936C017A01AD
:100130008B01C0E0D0E0CE15DF0589F0D8016D91CC
:100140008D01D601ED91FC910190F081E02DC60169
:100150000995892B11F47E0102C02196ECCFC701CD
:10016000DF91CF911F910F91FF90EF90DF90CF9093
:1001700008950E94BA1184E193E00E94310221E0C7
:10018000892B09F420E0822F0895EF92FF920F93BC
:100190001F93CF93DF93EC0181E0888F9B8D8C8D33
:1001A000981305C0E889F989808185FD24C0F62E61
:1001B0000B8D10E00F5F1F4F0F731127E02E8C8DFA
:1001C000E8120CC00FB607FCFACFE889F9898081E4
:1001D00085FFF5CFCE010E940703F1CF8B8DFE0185
:1001E000E80FF11DE35AFF4FF0820B8FEA89FB897C
:1001F0008081806207C0EE89FF896083E889F98980
:1002000080818064808381E090E0DF91CF911F91B5
:100210000F91FF90EF9008951F920F920FB60F92DB
:1002200011242F933F934F935F936F937F938F93FB
:100230009F93AF93BF93EF93FF938091B3029091FD
:10024000B402A091B502B091B602892B8A2B8B2BF8
:1002500059F18091AA02E091AB02F091AC02908139
:10026000892780838091B3029091B402A091B50256
:10027000B091B602181619061A061B060CF03DC0FE
:100280008091B3029091B402A091B502B091B602F0
:100290000197A109B1098093B3029093B402A0938E
:1002A000B502B093B60229C080910401E8E6F0E0FF
:1002B000E4919FEF90930401E130B9F098F0E230BF
:1002C000C9F4909170009D7F9093700091E090939D
:1002D000B0009091B100987F94609093B10010921B
:1002E000B30008C010926E0005C090916F009D7F12
:1002F00090936F0060E00E944A03FF91EF91BF91DD
:10030000AF919F918F917F916F915F914F913F91AD
:100310002F910F900FBE0F901F90189561157105CA
:1003200079F0FB0101900020E9F73197AF01461BFE
:10033000570BDC01ED91FC910280F381E02D0994D3
:1003400080E090E008950F931F93CF93DF93EC012B
:100350000E948E018C016FE471E0CE010E948E013B
:10036000800F911FDF91CF911F910F9108951F92E0
:100370000F920FB60F9211242F933F934F935F93D9
:100380006F937F938F939F93AF93BF93EF93FF935D
:1003900084E193E00E940703FF91EF91BF91AF9139
:1003A0009F918F917F916F915F914F913F912F918D
:1003B0000F900FBE0F901F9018951F920F920FB6BF
:1003C0000F9211242F938F939F93EF93FF93E091BC
:1003D0002403F09125038081E0912A03F0912B03FF
:1003E00082FD12C0908180912D038F5F8F732091C9
:1003F0002E03821751F0E0912D03F0E0EC5EFC4FEC
:10040000958F80932D0301C08081FF91EF919F9183
:100410008F912F910F900FBE0F901F901895FC0198
:10042000918D828D981761F0828DDF01A80FB11D2B
:100430005D968C91928D9F5F9F73928F90E008954F
:100440008FEF9FEF0895FC01918D828D981731F009
:10045000828DE80FF11D858D90E008958FEF9FEF5D
:100460000895FC01918D228D892F90E0805C9F4F33
:10047000821B91098F739927089580E090E0892B62
:1004800029F00E94BB0081110C940000089508958A
:1004900020919A0230919B022817390771F49091AC
:1004A000980280919902981741F0E0919802F0E04B
:1004B000E153FD4F808190E008958FEF9FEF089505
:1004C00008951F93CF93DF93DC015C962D913C91AF
:1004D0005D972115310539F481E090E013969C93E6
:1004E0008E9312973DC05196ED91FC915297509684
:1004F0009C915097892F80951FB75E964C915E977F
:1005000041FB772770F941FD6095F894408177238E
:1005100011F0492B01C048234083E9012197F1F7ED
:1005200048E0508160FF02C0592B01C0582350831E
:10053000E9012197F1F76695415099F7772321F06A
:1005400090818923808303C08081982B90831FBF73
:100550005C968D919C915D970197F1F721E030E0D9
:10056000C901DF91CF911F91089520919A02309196
:100570009B022817390771F4809199022091980203
:1005800090E0805C9F4F821B910960E470E00E94C4
:100590000810089580E090E0089520919A0230912B
:1005A0009B0228173907B9F490919802809199021B
:1005B000981789F0E0919802F0E0E153FD4F8081B7
:1005C0002091980230E02F5F3F4F2F733327209305
:1005D000980290E008958FEF9FEF0895CF93DF93F7
:1005E000EC016D2F8DEC95E00E9461026C2F8DEC7B
:1005F00095E00E9461026D2F84E193E00E94C500A6
:100600006C2F84E193E0DF91CF910C94C500FC0145
:10061000848DDF01A80FB11DA35ABF4F2C91848D8B
:1006200090E001968F739927848FA689B7892C93C0
:10063000A089B1898C9180648C93938D848D98135B
:1006400006C00288F389E02D80818F7D8083089524
:10065000CF93DF93EC01888D8823C9F0EA89FB8969
:10066000808185FD05C0A889B9898C9186FD0FC060
:100670000FB607FCF5CF808185FFF2CFA889B98935
:100680008C9185FFEDCFCE010E940703E7CFDF916C
:10069000CF91089590E0FC01ED58FF4F3491FC019B
:1006A000E155FF4F2491FC01E556FF4FE491EE2305
:1006B00009F43BC0332339F1333091F038F4313051
:1006C000A9F0323001F584B58F7D12C0373091F03A
:1006D0003830A1F03430B9F4809180008F7D03C0B0
:1006E000809180008F77809380000DC084B58F77D4
:1006F00084BD09C08091B0008F7703C08091B000A5
:100700008F7D8093B000F0E0EE0FFF1FE957FF4FA1
:10071000A591B4918FB7F894EC91611103C0209525
:100720002E2301C02E2B2C938FBF0895CF93DF93E0
:10073000EC0160E08E810E944A0361E08E810E949C
:100740004A0360E08E810E944A038BE891E00197A2
:10075000F1F7DF91CF910895CF93DF9390E0FC0103
:10076000E155FF4F2491FC01E556FF4F849188230A
:1007700061F190E0880F991FFC01E759FF4FC59187
:10078000D491FC01E957FF4FA591B491611109C0C3
:100790009FB7F8948881209582238883EC912E233B
:1007A0000BC0623061F49FB7F8943881822F809536
:1007B00083238883EC912E2B2C939FBF06C08FB789
:1007C000F894E8812E2B28838FBFDF91CF91089575
:1007D0001F920F920FB60F9211242F933F938F9376
:1007E0009F93AF93BF938091A0029091A102A0919B
:1007F000A202B091A30230910F0323E0230F2D3703
:1008000020F40196A11DB11D05C026E8230F029614
:10081000A11DB11D20930F038093A0029093A1020C
:10082000A093A202B093A3028091100390911103B0
:10083000A0911203B09113030196A11DB11D8093E5
:10084000100390931103A0931203B0931303BF916D
:10085000AF919F918F913F912F910F900FBE0F906D
:100860001F9018951F920F920FB60F9211242F937D
:100870003F934F935F936F937F938F939F93AF9328
:10088000BF93EF93FF93E0910201F091030109956B
:10089000FF91EF91BF91AF919F918F917F916F9158
:1008A0005F914F913F912F910F900FBE0F901F902E
:1008B00018951F920F920FB60F9211242F933F930A
:1008C0004F935F936F937F938F939F93AF93BF9358
:1008D000EF93FF93E0910001F09101010995FF91E1
:1008E000EF91BF91AF919F918F917F916F915F91A8
:1008F0004F913F912F910F900FBE0F901F90189521
:10090000CF92DF92EF92FF920F931F93CF93DF93DB
:100910007C016C0187E0C80ED11CC0E0D0E0062F3E
:1009200010E0B8010C2E02C0759567950A94E2F7A5
:100930006170F60181916F010E944A032196C430D3
:10094000D10579F7C701DF91CF911F910F91FF90EA
:10095000EF90DF90CF900C949603CF92DF92EF92BE
:10096000FF920F931F93CF93DF93EC01F62E642F2A
:100970008C810E944A038D818F3F19F060E00E94B4
:100980004A038F850F2D10E084FF25C06E0187E09C
:10099000C80ED11CE12CF12CB8010E2C02C07595AB
:1009A00067950A94E2F76170F60181916F010E94E8
:1009B0004A03FFEFEF1AFF0A88E0E816F10461F737
:1009C000CE01DF91CF911F910F91FF90EF90DF90BB
:1009D000CF900C949603B80184E0759567958A953D
:1009E000E1F7CE010E9480046F2DCE01DF91CF91FF
:1009F0001F910F91FF90EF90DF90CF900C948004A7
:100A000041E00E94AD0481E090E0089540E00C9444
:100A1000AD0461E00E9406058BE39FE10197F1F7C9
:100A20000895FF920F931F93CF93DF938C01EB01F7
:100A3000F42E85EB95E00E940905E1E08091C80560
:100A40008111E0E0E195F0E0EB54FA4F64896068D1
:100A500085EB95E00E940605FF20B1F069E272E0A7
:100A600085EB95E00E948E01E1E08091C80581113F
:100A7000E0E0E195F0E0EB54FA4F64896D5F606867
:100A800085EB95E00E940605B80185EB95E00E9494
:100A90008E01E091C805E23010F4E15001C0E1E0C0
:100AA000F0E0EB54FA4F6489606885EB95E00E94B2
:100AB0000605BE0185EB95E0DF91CF911F910F9167
:100AC000FF900C948E011F920F920FB60F9211247B
:100AD0002F933F934F935F936F937F938F939F9346
:100AE000AF93BF93EF93FF93E0919A02F0919B0233
:100AF000309709F451C0968DA685B785858591FFFD
:100B000004C09C91892329F447C09C91892309F052
:100B100043C0A389B4899C918589809589238C934E
:100B2000868997890197F1F7608D718DA685B785C4
:100B3000558538E020E0CB010197F1F7822F90E056
:100B400095958795282F4C91452309F020683150C1
:100B500091F7868D81FD20958091990290E0019614
:100B60008F73992730919802381749F0A091990214
:100B7000B0E0A153BD4F2C938093990203C0868DA2
:100B80008160868F828D938D0197F1F7A389B48957
:100B90009C918589892B8C93FF91EF91BF91AF91A7
:100BA0009F918F917F916F915F914F913F912F9185
:100BB0000F900FBE0F901F901895CF93DF93EC010D
:100BC000892B09F441C085EB95E00E940905C130ED
:100BD000D10531F441E06DE272E086E392E02CC091
:100BE000C230D10511F58091F2059091F30502977D
:100BF00044F46BE372E08091EC059091ED050E9466
:100C0000560E8091EE059091EF05E091F405F0917C
:100C1000F5053196EE0FFF1FE80FF91F6081718116
:100C2000329741E08081918107C0239739F440E0F9
:100C30006CE872E082E992E00E94110561E084E0D4
:100C4000DF91CF910C944A0360E084E00E944A0354
:100C500085EB95E0DF91CF910C940905AF92BF929F
:100C6000CF92DF92EF92FF920F931F93CF93DF9378
:100C70008FB7F894C090A002D090A102E090A20299
:100C8000F090A3028FBF8091CB029091CC02A091F3
:100C9000CD02B091CE02A7019601281B390B4A0B59
:100CA0005B0B2B3F31054105510598F100919E02E8
:100CB00010919F020330110531F52091F20530911A
:100CC000F30525303105FCF4A0909C02B0909D0204
:100CD000E501C20FD31F60E58DEC95E00E94610233
:100CE000CE010E94EE02C5010A960E94EE0280919A
:100CF000B3059091B405FC01E250FE4F11821082C1
:100D000032961183008380919E0290919F020E94EF
:100D1000DD05C092CB02D092CC02E092CD02F092DF
:100D2000CE02DF91CF911F910F91FF90EF90DF9056
:100D3000CF90BF90AF900895CF92DF92EF92FF9245
:100D40008FB7F894C090A002D090A102E090A202C8
:100D5000F090A3028FBF8091C7029091C802A0912A
:100D6000C902B091CA02A7019601281B390B4A0B90
:100D70005B0B2B3F31054105510508F180919E0227
:100D800090919F02009719F481E090E00BC08130B0
:100D9000910519F482E090E005C08230910539F4A4
:100DA00083E090E090939F0280939E0202C003979D
:100DB00059F380919E0290919F020E94DD05C0929E
:100DC000C702D092C802E092C902F092CA02FF9014
:100DD000EF90DF90CF900895CF92DF92EF92FF9245
:100DE0000F931F93CF93DF93EC01181619061CF095
:100DF0006FE671E00DC0880F991F0E948D108C0165
:100E0000009721F07C0120E030E008C064EA71E046
:100E10008091F8059091F9050E946D0E8091FE0574
:100E20009091FF05C090FA05D090FB05281739076F
:100E3000DCF44091000650910106C901840F951F12
:100E40006091FC057091FD050E940810FC01EE0FF9
:100E5000FF1FEC0DFD1D80819181F701819391931E
:100E60007F012F5F3F4FDACFC6010E9422111093FE
:100E7000FB050093FA05109201061092000680917E
:100E8000FE059091FF059093030680930206D09390
:100E9000FD05C093FC05DF91CF911F910F91FF904D
:100EA000EF90DF90CF900895EF92FF920F931F93F2
:100EB000CF93DF93EC01623018F08F8588608F87C5
:100EC0006B8B1C8A80E48D8B80E18E8B80E58F8B11
:100ED00061E08C810E94AC038D818F3F19F061E04D
:100EE0000E94AC0361E08E810E94AC037E0187E02A
:100EF000E80EF11C00E010E08F8584FD03C084E063
:100F000090E002C088E090E0081719074CF461E017
:100F1000F70181917F010E94AC030F5F1F4FECCF5F
:100F20008BE39DE00197F1F760E08C810E944A031A
:100F300060E08E810E944A038D818F3F19F060E04E
:100F40000E944A036F8564FD1DC063E0CE010E94CC
:100F500080040BE416E4C8010197F1F763E0CE01C9
:100F60000E948004C8010197F1F763E0CE010E945E
:100F7000800483E592E00197F1F762E0CE010E94E0
:100F8000800416C06062CE010E9406058BE496E4E0
:100F90000197F1F76F856062CE010E94060583E537
:100FA00092E00197F1F76F856062CE010E9406051D
:100FB0006F856062CE010E94060584E0888B6CE03C
:100FC000CE010E940605CE010E94090582E0898BB0
:100FD00066E0CE01DF91CF911F910F91FF90EF90CE
:100FE0000C940605E0911403F09115030190F08133
:100FF000E02D682F84E193E00994CF93DF93CDB780
:10100000DEB7A7970FB6F894DEBF0FBECDBF7894BA
:1010100084B5826084BD84B5816084BD85B58260FD
:1010200085BD85B5816085BD80916E0081608093AE
:101030006E00109281008091810082608093810017
:101040008091810081608093810080918000816027
:10105000809380008091B10084608093B100809182
:10106000B00081608093B00080917A0084608093AA
:101070007A0080917A00826080937A0080917A0071
:10108000816080937A0080917A00806880937A00F2
:101090001092C100E0912403F091250382E0808347
:1010A000E0912003F09121031082E0912203F0915E
:1010B00023038FEC808310922C03E0912803F0919E
:1010C000290386E08083E0912603F0912703808145
:1010D00080618083E0912603F091270380818860FE
:1010E0008083E0912603F0912703808180688083CC
:1010F000E0912603F091270380818F7D80831092F9
:10110000E8051092E7051092E6051092E5051092A9
:10111000E4051092E3058DE991E09093EA05809350
:10112000E9059091D905963108F057C02DEB30E0D4
:101130003093E4052093E3052BE931E03093E60595
:101140002093E5052CE231E03093E8052093E70594
:1011500020916800983050F031E09E3008F430E083
:1011600081E001C0880F3A95EAF701C084E0822B44
:1011700080936800983038F09E3040F0963148F007
:1011800020E030E008C02DE630E005C02BE630E07E
:1011900002C02CE630E03093E1052093E005983062
:1011A00030F481E001C0880F9A95EAF70EC0292F2C
:1011B00030E09E3018F42850310902C02E50310919
:1011C00081E001C0880F2A95EAF78093E2058091BB
:1011D000E9059091EA050197F1F78091E705909173
:1011E000E805892B49F1E0919A02F0919B0225E0F4
:1011F000ED3CF20709F1309739F0A389B4899C914D
:101200008589809589238C938091EB058E7F8093CF
:10121000EB0510929902109298028DEC95E0909354
:101220009B0280939A02E091E005F091E1059081A4
:101230008091E205892B808362E085EB95E00E9436
:10124000540761E085E00E94AC0362E083E00E9405
:10125000AC0362E082E00E94AC0361E084E00E94A3
:10126000AC038CE996E09093030180930201809196
:101270006900837F886080936900E99A8EE296E036
:101280009093010180930001809169008C7F8260BE
:1012900080936900E89A81E090E090939F028093A8
:1012A0009E021092A9021092A8021092A702109218
:1012B000A6021092A5021092A40210929D02109212
:1012C0009C020E94DD0562E571E084E193E00E94EA
:1012D000A3018DEC95E00E94B5025C01A114B1045C
:1012E00009F4D9C18DEC95E00E94CD020091B305BF
:1012F0001091B405A80142505E4F5DA34CA3DA01E2
:101300004D915C914115510529F4803519F08E34C9
:1013100009F0BDC19A012F5F3F4FECA1FDA13183C0
:101320002083F801E40FF51F8083A8015E5F1A0196
:101330002330310591F4D80111968C911197082E24
:10134000000C990B982F882712964C91840F911DB1
:1013500047FD9A95F10191838083D1018D919C91F4
:101360002817390709F093C168E571E084E193E03B
:101370000E94A30167E671E084E193E00E948E0180
:10138000F80180810E94F2076FE471E084E193E04C
:101390000E948E01D8018C91803531F0F801808156
:1013A0008E3409F014C102C175E0E72EF12CF10171
:1013B00080819181E816F9068CF78AE190E00E941D
:1013C0008D106C0149E150E0B8016E0D7F1D0E9447
:1013D000BF118090F2059090F3058091F0059091F7
:1013E000F1058816990609F05AC02401F3E04F0E62
:1013F000511C141415041CF06FE671E019C0C201F1
:10140000880F991F0E948D103C01009779F0E091A0
:10141000EE05F091EF052091F4053091F5053FA31D
:101420002EA39BA38AA320E030E008C064EA71E009
:101430008091EC059091ED050E94560E2815390516
:10144000BCF48EA19FA1820F931FB4010E940810CB
:10145000DC01AA0FBB1FAE0FBF1F8D919C91AAA1EB
:10146000BBA18D939D93BBA3AAA32F5F3F4FE6CF54
:10147000CF010E9422117092EF056092EE0510924A
:10148000F5051092F4058091F2059091F305909383
:10149000F7058093F6055092F1054092F0054091D2
:1014A000EE055091EF058091F6059091F7059C01AE
:1014B0002F5F3F4F3093F7052093F605880F991F54
:1014C000FA01E80FF91FD182C0828091F005909156
:1014D000F1052817390721F41092F7051092F60547
:1014E0008091F2059091F30501969093F305809316
:1014F000F205B60184E193E00E94A301F601019098
:101500000020E9F7EC18FD08EE0EFF1E6EED71E00D
:1015100084E193E00E948E0127010F2C000C6608E5
:10152000770877FE20C08DE20E94F207222733273A
:10153000A901241935094609570919A2FE01B196D6
:101540006F01CA01B9012AE030E040E050E00E949A
:101550001C10605DD6016E936D01211531054105AA
:10156000510579F717C0A301920119A2FE01B196A6
:101570006F01CA01B9012AE030E040E050E00E946A
:101580001C10605DD6016E936D012115310541057A
:10159000510579F7B60184E193E00E948E016FE472
:1015A00071E084E193E00E948E0101CF680134E094
:1015B000C30ED11C780143E0E40EF11CD1012D9142
:1015C0003C91C701801B910B8217930754F0ACA18B
:1015D000BDA11D921C9223E030E0F10131832083F4
:1015E00056C0D6019C90F701808063EE71E084E1E3
:1015F00093E00E948E01D7018C910E94F207F601C0
:1016000080810E94F2076FE471E084E193E00E9420
:101610008E018091FE059091FF052091FC0530918F
:10162000FD058217930719F403960E94EC0640917A
:10163000FA055091FB052091020630910306C9017D
:1016400001969093030680930206220F331FFA013E
:10165000E20FF31F808291822091FC053091FD05FD
:101660008217930721F410920306109202068091CC
:10167000FE059091FF0501969093FF058093FE056E
:10168000F2E0CF0ED11C22E0E20EF11C97CFB1E0C8
:10169000AB1AB10823CE8091FE059091FF05181674
:1016A00019060CF067C28FB7F8948090A002909052
:1016B000A102A090A202B090A3028FBF8092C302A9
:1016C0009092C402A092C502B092C602C090BF021E
:1016D000D090C002E090C102F090C2022091FE05BD
:1016E0003091FF052115310541F46FEE71E08091D5
:1016F000F8059091F9050E946D0EE0910006F091B9
:101700000106CF01880F991F0091FA051091FB0582
:10171000080F191FD80111966C9170E084E195E0D3
:101720000E940810CB01770FAA0BBB0BC80ED91E65
:10173000EA1EFB1EC814D904EA04FB0408F01AC20E
:101740003196F0930106E0930006D801FC901196C3
:101750000C91215031093093FF052093FE058091B3
:10176000FC059091FD05E817F90721F41092010698
:10177000109200062115310569F0AC0197FF02C0F7
:101780004D5F5F4F559547955595479542175307C0
:101790000CF0F3C1FF2009F4DDC1EBE0F1E0808142
:1017A00090910C0120910401253021F4E8E6F0E04D
:1017B000149175C02F3F09F0CDC125E0209304019D
:1017C000E8E6F0E014911F3F09F4C4C1113009F1BB
:1017D000123009F441C0111162C014BC15BC24B50B
:1017E000226024BD25B5216025BDE0EAF0E0E4914A
:1017F000F0E0EE0FFF1FE957FF4F25913491309332
:10180000B2022093B102E4EBF0E0E491E093B00285
:1018100048C01092800010928100209181002860C1
:101820002093810020918100216020938100E0EAD3
:10183000F0E0E491F0E0EE0FFF1FE957FF4F259134
:1018400034913093AF022093AE02E4EBF0E0E491E8
:10185000E093AD0211E025C01092B0001092B100EB
:101860002091B00022602093B0002091B10021604F
:101870002093B100E0EAF0E0E491F0E0EE0FFF1F0A
:10188000E957FF4F259134913093AC022093AB027E
:10189000E4EBF0E0E491E093AA0212E002C017FD4D
:1018A00059C14C018F7028E030E0A901481B510953
:1018B000D40102C0B695A7954A95E2F7BDA3ACA3A3
:1018C000602F70E088EE93E00E9408101B0161E039
:1018D00085E00E94AC03ECA1FDA12F01612C712CCD
:1018E000812F8D7F09F0B6C060E072E18AE790E059
:1018F000A30192010E943E1049015A0169017A0137
:10190000F1E0CF1AD108E108F1082FEFC216D10497
:10191000E104F10409F008F44BC060E472E48FE0E4
:1019200090E0A30192010E943E1069017A0181E0DA
:10193000C81AD108E108F108123001F59FEFC91665
:10194000D104E104F10409F008F478C160E970ED14
:1019500083E090E0A30192010E943E1069017A01A8
:10196000A1E0CA1AD108E108F108BFEFCB16D104F3
:10197000E104F10409F0C0F583E065C0EFEFCE1695
:10198000D104E104F104B1F0A8F068E478EE81E05C
:1019900090E0A30192010E943E1069017A01F1E0FA
:1019A000CF1AD108E108F108112309F4EFC03DC1B5
:1019B00081E001C082E0112391F045C0D501C4014E
:1019C0002AE0B595A795979587952A95D1F76C014B
:1019D0007D01E1E0CE1AD108E108F10885E095B576
:1019E000987F892B85BD6CC068E478EE81E090E03B
:1019F000A30192010E943E1069017A0191E0C91A87
:101A0000D108E108F108AFEFCA16D104E104F104EE
:101A100009F008F4B9C064E274EF80E090E0A3013B
:101A200092010E943E1069017A0181E0C81AD10832
:101A3000E108F1089FEFC916D104E104F10411F0A7
:101A400008F0C6C085E09091B100987F892B809303
:101A5000B10036C060E072E18AE790E0A301920134
:101A60000E943E1069017A01F1E0CF1AD108E10825
:101A7000F108C114D10421E0E206F10488F068E421
:101A800078EE81E090E0A30192010E943E1069018E
:101A90007A0181E0C81AD108E108F10893E001C099
:101AA00091E0113069F480918100887F892B8093C7
:101AB00081002114310439F42FEF3FEFA90129C02F
:101AC0002114310471F02CA13DA1220F331FD1014B
:101AD0000E945D1028EE33E040E050E00E941C10B0
:101AE00003C02FEF3FEFA901113099F0123019F127
:101AF000111130C0C7BC2093BB023093BC0240938D
:101B0000BD025093BE0280916E00826080936E0091
:101B100021C0D0928900C09288002093B7023093F0
:101B2000B8024093B9025093BA0280916F0082606C
:101B300080936F000FC0C092B3002093B302309324
:101B4000B4024093B5025093B60280917000826057
:101B5000809370008091C3029091C402A091C5024D
:101B6000B091C6028093BF029093C002A093C102BD
:101B7000B093C2020E943D02ACCB97FD01969595B1
:101B800087950E94EC0606CE84E05DCFFFEFCF166E
:101B9000D104E104F104D1F0C8F062E17AE780E019
:101BA00090E0A30192010E943E1069017A01B1E028
:101BB000CB1AD108E108F108EFEFCE16D104E10409
:101BC000F10411F008F0FACE84E009CF83E007CFEA
:101BD00062E17AE780E090E0A30192010E943E106A
:101BE00069017A0181E0C81AD108E108F1089FEF84
:101BF000C916D104E104F104B1F0A8F0D501C40183
:101C00005AE0B595A795979587955A95D1F76C01A8
:101C10007D01E1E0CE1AD108E108F108112309F4B1
:101C2000DDCE87E010CF86E0C6CEAFEFCA16D10476
:101C3000E104F10409F060F684E0BDCE82E003CF58
:101C40003FB7F8948091100390911103A091120373
:101C5000B091130326B5A89B05C02F3F19F001963C
:101C6000A11DB11D3FBFBA2FA92F982F8827820F22
:101C7000911DA11DB11DBC01CD0142E0660F771F72
:101C8000881F991F4A95D1F7089561E08DE00E9461
:101C9000AC0361E08DE00E944A030E94D10F60E036
:101CA0008DE00E944A030E94D10FF3CF009711F0FC
:101CB0000E94A3010E94450E61E08DE00E94AC03EA
:101CC00061E08DE00E944A030E94D10F60E08DE048
:101CD0000E944A030E94D10FF3CF009711F00E9497
:101CE000A3010E945C0E83E491E09093CE05809363
:101CF000CD0580919A0290919B028D5C954071F484
:101D0000E091E005F091E10590818091E2058095F8
:101D10008923808310929B0210929A028091EE0593
:101D20009091EF050E9422118091FA059091FB0598
:101D30000C942211CF92DF92EF92FF92CF93DF9318
:101D4000109217031092160328EEC22E23E0D22E13
:101D5000E12CF12CC0921803D0921903E0921A03DF
:101D6000F0921B038BE291E0909315038093140390
:101D700085EC90E0909321038093200384EC90E025
:101D8000909323038093220380EC90E090932503AB
:101D90008093240381EC90E09093270380932603A3
:101DA00082EC90E0909329038093280386EC90E0E6
:101DB00090932B0380932A0310922D0310922E03ED
:101DC00010922F03109230031092FD051092FC0523
:101DD0001092FF051092FE05109201061092000667
:101DE00010920306109202061092F9051092F8055F
:101DF00084E090E00E948D109093FB058093FA059B
:101E0000892B11F40E945C0EC2E0D0E0D093FD0556
:101E1000C093FC051092F1051092F0051092F305A5
:101E20001092F2051092F5051092F4051092F70544
:101E30001092F6051092ED051092EC0584E090E00A
:101E40000E948D109093EF058093EE05892B11F47D
:101E50000E94450ED093F105C093F0051092D00575
:101E60001092CF05C092D105D092D205E092D30551
:101E7000F092D40583E491E09093CE058093CD0554
:101E80001092E4051092E3051092E6051092E50524
:101E90001092E8051092E7051092EA051092E90504
:101EA0006091EB056E7F6D7F6093EB0566956170C9
:101EB00081E068278BE00E944A0361E08BE00E948A
:101EC000AC03EAEBF0E0E491E093DD05E6EAF0E054
:101ED000E491F0E0EE0FFF1FE957FF4F85919491D9
:101EE0009093DF058093DE0560E08AE00E94AC03FA
:101EF0008091EB0581FD04C061E08AE00E944A0305
:101F00008AE08093D905E9EBF0E0E491E093DA050B
:101F1000E5EAF0E0E491F0E0EE0FFF1FEF56FF4F2F
:101F2000859194919093DC058093DB051092B80520
:101F30001092B7058BE391E09093B6058093B505B9
:101F400088E08093B9058FEF8093BA0589E080938C
:101F5000BB0586E08093BC0587E08093BD058CE0DF
:101F60008093BE058DE08093BF051092C00510924E
:101F7000C1051092C2051092C3051092C40561E01C
:101F800085EB95E00E94540781EB93E09093B405B4
:101F90008093B305DF91CF91FF90EF90DF90CF90CA
:101FA00008958F929F92AF92BF92CF92DF92EF925D
:101FB000FF920E94200E4B015C018AEFC82ED12CAB
:101FC000E12CF12C0E94200EDC01CB01881999092B
:101FD000AA09BB09883E9340A105B10558F021E04C
:101FE000C21AD108E108F10888EE880E83E0981E35
:101FF000A11CB11CC114D104E104F10419F7FF9034
:10200000EF90DF90CF90BF90AF909F908F9008950A
:1020100097FB072E16F4009407D077FD09D00E9495
:10202000641007FC05D03EF4909581959F4F08956C
:10203000709561957F4F0895A1E21A2EAA1BBB1BD4
:10204000FD010DC0AA1FBB1FEE1FFF1FA217B30784
:10205000E407F50720F0A21BB30BE40BF50B661F9A
:10206000771F881F991F1A9469F76095709580955E
:1020700090959B01AC01BD01CF010895052E97FB02
:102080001EF400940E94551057FD07D00E941C10AA
:1020900007FC03D04EF40C945510509540953095A4
:1020A00021953F4F4F4F5F4F0895909580957095C4
:1020B00061957F4F8F4F9F4F08950E947E10B7FF0D
:1020C0000895821B930B0895AA1BBB1B51E107C007
:1020D000AA1FBB1FA617B70710F0A61BB70B881FB8
:1020E000991F5A95A9F780959095BC01CD01089547
:1020F000EE0FFF1F0590F491E02D0994A29FB0010F
:10210000B39FC001A39F700D811D1124911DB29F2B
:10211000700D811D1124911D0895CF93DF9382309E
:10212000910510F482E090E0E0910606F091070638
:1021300020E030E0C0E0D0E0309711F140815181E3
:1021400048175907C0F04817590761F482819381F5
:10215000209719F09B838A832BC090930706809366
:10216000060626C02115310519F04217530718F449
:102170009A01BE01DF01EF010280F381E02DDCCF87
:102180002115310509F1281B390B2430310590F454
:1021900012968D919C9113976115710521F0FB01A9
:1021A0009383828304C09093070680930606FD0103
:1021B000329644C0FD01E20FF31F819391932250A8
:1021C00031092D933C933AC02091040630910506C5
:1021D000232B41F42091070130910801309305062B
:1021E0002093040620910501309106012115310547
:1021F00041F42DB73EB74091090150910A01241BCB
:10220000350BE0910406F0910506E217F307A0F400
:102210002E1B3F0B2817390778F0AC014E5F5F4F3C
:102220002417350748F04E0F5F1F50930506409363
:1022300004068193919302C0E0E0F0E0CF01DF91CA
:10224000CF9108950F931F93CF93DF93009709F4D5
:102250008CC0FC0132971382128200910606109105
:1022600007060115110581F420813181820F931F2A
:1022700020910406309105062817390779F5F09367
:102280000506E093040671C0D80140E050E0AE17A7
:10229000BF0750F412962D913C911397AD01211573
:1022A000310509F1D901F3CF9D01DA01338322838E
:1022B00060817181860F971F8217930769F4EC0183
:1022C00028813981260F371F2E5F3F4F31832083AE
:1022D0008A819B8193838283452B29F4F09307069F
:1022E000E093060642C01396FC93EE931297ED011D
:1022F000499159919E01240F351FE217F30771F49C
:1023000080819181840F951F029611969C938E93E4
:102310008281938113969C938E931297E0E0F0E074
:10232000D80112968D919C911397009719F0F8019E
:102330008C01F6CF8D919C9198012E5F3F4F820FBB
:10234000931F20910406309105062817390769F478
:10235000309729F4109207061092060602C01382E5
:1023600012821093050600930406DF91CF911F910E
:102370000F91089581E090E0F8940C94CE11FB0148
:10238000DC014150504048F001900D920020C9F707
:1023900001C01D9241505040E0F7089510E0C3E69F
:1023A000D0E004C0FE010E9478102196C436D10707
:0623B000C9F7F894FFCF0D
:1023B60047024702FF000008068000801B221DDE40
:1023C6001EFFFF5A1053115B1272139A14FFFFD4AB
:1023D6001520178018F41900000000C5008E003182
:1023E600020F02230228030000000000058E0000F1
:1023F60000000061028E00B502CD02480260020DA7
:102406000A0073746172740070726F63657373206F
:102416006275666665720074797065203D200051AC
:10242600554555453A206572726F72206475652070
:10243600746F20756E646573697261626C65207372
:10244600697A6520666F7220717565756520736996
:102456007A652E0051554555453A20696E73756665
:1024660066696369656E74206D656D6F7279207437
:102476006F20696E697469616C697A652074656D2F
:10248600706F726172792071756575652E006920AD
:102496003D20006E6F7761206E7574613A200051A1
:1024A600554555453A2063616E277420676574204B
:1024B6007468652066726F6E74206974656D206F2E
:1024C600662071756575653A207175657565206953
:1024D6007320656D7074792E002D3E200054757240
:1024E6006E206F666600506C617900515545554502
:1024F6003A2063616E2774206765742074686520CE
:102506007365636F6E642066726F6E74206974659E
:102516006D206F662071756575653A2071756575F4
:102526006520686173206C657373207468616E2022
:102536003220656C656D656E74732E0054696D6529
:0825460072005469746C650019
:00000001FF
